S01D0000466F75725365676D656E746564446973706C6179732E7372656386
S113000045C000004BC0000049C0000047C00000CC
S113001045C0000043C0000041C000003FC00000D4
S11300203DC000003BC0000039C0000037C00000E4
S113003035C0000033C0000031C000002FC00000F4
S11300402DC000002BC0000029C0000027C0000004
S113005025C0000023C0000021C000001FC0000014
S11300601DC000001BC0000019C0000017C0000024
S113007015C0000013C0000011C000000FC0000034
S11300800DC000000BC0000009C0000011241FBEF9
S1130090CFEFD0E1DEBFCDBF98D003C1B1CF1816EA
S11300A019066CF420E030E0EFECF7E03197F1F75B
S11300B000C000002F5F3F4F82179307A9F70895F0
S11300C08FEF87BBBB98C09A82E58DB908958FB92D
S11300D0779BFECF089598B321E030E002C0220F51
S11300E0331F8A95E2F72095292328BB089598B3F6
S11300F021E030E002C0220F331F8A95E2F7292B5A
S113010028BB0895CF93DF93D82FC62F80E090E0CB
S1130110E2DF8D2FDCDF8C2FDADF80E090E0E7DF99
S1130120DF91CF91089580E0D6DF89E0D0DF8FEFB3
S1130130CEDF80E0DCDF80E0CEDF8AE0C8DF8FE066
S1130140C6DF80E0D4DF80E0C6DF8BE0C0DF83E081
S1130150BEDF80E0CCDF80E0BEDF8CE0B8DF81E092
S1130160B6DF80E0C4CF0895CF92DF92FF920F9361
S11301701F93CF93DF93EC01992344F4D195C19558
S1130180D1096AE084E0BEDF13E001C014E01C166C
S11301901D069CF40F2EFAE0CF2ED12CF02DCE01AB
S11301A0B60158D0F62E072F682F812FABDFCF2D45
S11301B0D02F11501C161D0694F3DF91CF911F917F
S11301C00F91FF90DF90CF900895CF9381E087BB8C
S11301D077DFA9DFC1E080E07EDF8C2F78DF80E06D
S11301E076DF80E084DFCF5FC530A9F788EE93E047
S11301F056DFC1E080E06FDF8C2F69DF8C2F67DF73
S113020080E075DF88EE93E04ADFCF5FC53091F779
S113021088EE93E044DF8FE193E2A6DF88EE93E07B
S11302203EDF85E89FEFA0DF88EE93E038DF6EE5E0
S113023081E068DF60E082E065DF60E083E062DF48
S11302406EE584E05FDF88EE93E029DF81E090E0F3
S1130250CF91089597FB072E16F4009406D077FDEE
S113026008D00BD007FC05D03EF4909581959F4FA4
S11302700895709561957F4F0895AA1BBB1B51E1AA
S113028007C0AA1FBB1FA617B70710F0A61BB70B02
S1130290881F991F5A95A9F780959095BC01CD01A7
S10902A00895F894FFCF5D
S9030000FC
