S01600005365676D656E74446973706C61792E7372656365
S113000045C0000060C000005FC0000084C0000064
S11300105AC0000058C0000056C0000054C0000080
S113002052C0000050C000004EC000004CC0000090
S11300304AC0000048C0000046C0000044C00000A0
S113004042C0000040C000003EC000003CC00000B0
S11300503AC0000038C0000036C0000034C00000C0
S113006032C0000030C000002EC000002CC00000D0
S11300702AC0000028C0000026C0000024C00000E0
S113008022C0000020C000001EC0000011241FBEBA
S1130090CFEFD0E1DEBFCDBF11E0A0E0B1E0EAE9EF
S11300A0F1E000E00BBF02C007900D92A031B10750
S11300B0D9F721E0A0E1B1E001C01D92A231B2075D
S11300C0E1F750D068C09CCF1F920F920FB60F92E9
S11300D011240BB60F928F939F93EF93FF9380910C
S11300E01001909111018E30910550F40196909376
S11300F0110180931001FC01E050FF4F808185BB0A
S1130100FF91EF919F918F910F900BBE0F900FBEB7
S11301100F901F9018951F920F920FB60F921124F3
S11301200BB60F928F939F93EF93FF9380911001DF
S1130130909111011816190654F401979093110126
S113014080931001FC01E050FF4F808185BBFF913B
S1130150EF919F918F910F900BBE0F900FBE0F9058
S11301601F901895109211011092100111BA8FEF7F
S113017084BBEAE6F0E080818C63808389B7866083
S113018089BF7894E0911001F0911101E050FF4F84
S10D0190808185BBFFCFF894FFCFF8
S113019A3F065B4F666D7D077F6F777C395E79001A
S9030000FC
