S00A000062312E7372656387
S113000045C0000053C0000051C000004FC00000B4
S11300104DC000004BC0000049C0000047C00000B4
S113002045C0000043C0000041C000003FC00000C4
S11300303DC000003BC0000039C0000037C00000D4
S113004035C0000033C0000031C000002FC00000E4
S11300502DC000002CC0000029C0000027C00000F3
S113006025C0000023C0000021C000001FC0000004
S11300701DC000001BC0000019C0000017C0000014
S113008015C0000013C0000011C0000011241FBEE1
S1130090CFEFD0E1DEBFCDBF21E0A0E0B1E001C0F1
S11300A01D92A230B207E1F736D0A5C0A9CF1F92A6
S11300B00F920FB60F9211240BB60F922F933F930A
S11300C04F935F936F937F938F939F93AF93BF935C
S11300D0EF93FF9324B135B1A0E0B4E17DD02FEFCD
S11300E033E040E050E056D030930101209300010A
S11300F0FF91EF91BF91AF919F918F917F916F91FC
S11301005F914F913F912F910F900BBE0F900FBEB7
S11301100F901F9018958FEF8ABB87BBE1E6F0E044
S113012080818D7F808381E087B98EEE86B9789453
S1130130C0E0D4E1E8E0F0E02FEF30E0809100018E
S113014090910101880F991F880F991F880F991F9B
S1130150BE010CD0CF01861B970BA90102C0440F2E
S1130160551F8A95E2F748BB4BBBE8CFAA1BBB1BC4
S113017051E107C0AA1FBB1FA617B70710F0A61BA3
S1130180B70B881F991F5A95A9F780959095BC01C4
S1130190CD010895A1E21A2EAA1BBB1BFD010DC0BF
S11301A0AA1FBB1FEE1FFF1FA217B307E407F50723
S11301B020F0A21BB30BE40BF50B661F771F881FFF
S11301C0991F1A9469F760957095809590959B0195
S11301D0AC01BD01CF010895A29FB001B39FC0013E
S11301E0A39F700D811D1124911DB29F700D811D5F
S10D01F01124911D0895F894FFCF27
S9030000FC
