S01100004C63644D6F64756C652E737265639A
S113000045C0000058C0000056C0000054C00000A5
S113001052C0000050C000004EC000004CC00000A0
S11300204AC0000048C0000046C0000044C00000B0
S113003042C0000040C000003EC000003CC00000C0
S11300403AC0000038C0000036C0000034C00000D0
S113005032C0000030C000002EC000002CC00000E0
S11300602AC0000028C0000026C0000024C00000F0
S113007022C0000020C000001EC000001CC0000000
S11300801AC0000018C0000016C0000011241FBED2
S1130090CFEFD0E1DEBFCDBF11E0A0E0B1E0EAEFE9
S11300A0F1E000E00BBF02C007900D92A232B1074D
S11300B0D9F78DD0A0C0A4CF672B11F428E001C0DC
S11300C02CE0982F907F95BB95B3922B95BBEFECCA
S11300D0F7E03197F1F700C0000094E095BBF0E140
S11300E08F9FC001112485BB85B3822B85BB8FEC08
S11300F097E00197F1F700C0000015BA089560E099
S113010070E081E0D9DF60E070E088E0D5CF089549
S11301108FEF84BB15BAF3DF60E070E082E0CCDFE0
S113012060E070E088E2C8DF60E070E08EE0C4DF89
S113013060E070E086E0C0DF60E070E080E8BCCFA3
S11301400895EF92FF920F931F93CF93DF938C0147
S11301507C01C0E0D0E007C061E070E0F70181916C
S11301607F01AADF2196F80101900020E9F7319779
S1130170E01BF10BCE17DF0778F3DF91CF911F91CE
S11301800F91FF90EF9008950F931F93CF93DF93F8
S11301908C016230710529F460E070E080EC8CDF42
S11301A004C060E070E080E887DF1016110654F4A4
S11301B0C0E0D0E060E070E084E17EDF21960C17BF
S11301C01D07C1F7DF91CF911F910F910895A0DF13
S11301D061E070E080E090E0D7DF80E091E0B1DFA3
S11301E062E070E080E090E0CFDF81E191E0A9DFA0
S10D01F080E090E00895F894FFCF3A
S11301FA4C6F69732047757373656E686F76656EA5
S113020A0047757373656E686F76656E204C6F6907
S105021A73006B
S9030000FC
