S00D000054696D65722E7372656316
S113000045C0000060C000005EC000005CC000008D
S11300105AC0000058C0000056C0000054C0000080
S113002052C0000051C000004EC000004CC000008F
S11300304AC0000048C0000046C0000044C00000A0
S113004042C0000040C000003EC000003CC00000B0
S11300503AC0000038C0000036C0000034C00000C0
S113006032C0000030C000002EC000002CC00000D0
S11300702AC0000028C0000026C0000024C00000E0
S113008022C0000020C000001EC0000011241FBEBA
S1130090CFEFD0E1DEBFCDBF11E0A0E0B1E0E6E6F6
S11300A0F1E000E00BBF02C007900D92A230B1074F
S11300B0D9F721E0A2E0B1E001C01D92A430B2075B
S11300C0E1F73ED04EC09CCF1F920F920FB60F9215
S11300D011242F933F938F939F93809102019091CA
S11300E00301019690930301809302012091000182
S11300F030910101232B69F08F30910551F412BA2C
S11301001092030110920201109201011092000159
S11301100EC0499761F48FEF82BB81E090E0909329
S113012001018093000110920301109202019F913A
S11301308F913F912F910F900FBE0F901F901895A4
S11301408FEF81BB87E083BD88E085BD87B7846876
S113015087BF85B5856085BD14BC789480E090E048
S10901600895F894FFCF9E
S1050166010092
S9030000FC
